S01100004D6178696D546573742E7372656377
S11300000C946F000C9499000C9401010C949700CB
S11300100C9497000C9497000C9497000C94970000
S11300200C9497000C9497000C9497000C949700F0
S11300300C9497000C9497000C9497000C949700E0
S11300400C94B6060C9497000C94F7040C942905B0
S11300500C9497000C9497000C9497000C949700C0
S11300600C9497000C9497003C0943094A095109E0
S113007058096F095F096F096609E009E609EC0987
S1130080F209F809FE09040A000000080002010050
S1130090000304070000000000000000010204083F
S11300A010204080010204081020010204081020DE
S11300B0040404040404040402020202020203030A
S11300C00303030300000000250028002B000000A8
S11300D00000240027002A00E10259050703112427
S11300E01FBECFEFD8E0DEBFCDBF11E0A0E0B1E08E
S11300F0E8EFFAE202C005900D92A036B107D9F7F5
S113010027E0A0E6B1E001C01D92A637B207E1F7EF
S113011010E0CEE6D0E004C02197FE010E94FF1259
S1130120CC36D107C9F70E949F050C946F150C9427
S113013000001F920F920FB60F921124CF92DF92FC
S1130140EF92FF922F933F934F935F936F937F931D
S11301508F939F93AF93BF93EF93FF930E940007F6
S11301606B017C018091640190916501A09166010D
S1130170B0916701A7019601281B390B4A0B5B0B51
S1130180293C310541055105F8F080918801909191
S113019089012091690130916A018217930734F42F
S11301A00196909389018093880104C0109289017B
S11301B01092880160918801709189014AE050E0B1
S11301C08CEC96E00E949D06C0926401D092650179
S11301D0E0926601F0926701FF91EF91BF91AF91B8
S11301E09F918F917F916F915F914F913F912F914B
S11301F0FF90EF90DF90CF900F900FBE0F901F9065
S113020018951F920F920FB60F921124CF92DF927E
S1130210EF92FF922F933F934F935F936F937F934C
S11302208F939F93AF93BF93EF93FF930E94000725
S11302306B017C018091600190916101A091620148
S1130240B0916301A7019601281B390B4A0B5B0B84
S1130250293C310541055105D8F0809188019091E0
S113026089011816190614F4019704C080916901D4
S113027090916A019093890180938801609188012B
S1130280709189014AE050E08CEC96E00E949D0652
S1130290C0926001D0926101E0926201F092630128
S11302A0FF91EF91BF91AF919F918F917F916F914A
S11302B05F914F913F912F91FF90EF90DF90CF90FE
S11302C00F900FBE0F901F901895CF93DF93CDB76B
S11302D0DEB760970FB6F894DEBF0FBECDBF40E027
S11302E050E068EC72E484E496E00E941E0E40E064
S11302F050E068EC72E488E896E00E941E0E64E424
S113030076E08BE691E00E94100F68E876E08BE6D9
S113031091E00E94100F88E99EEFAFEFBFEF89874D
S11303209A87AB87BC8788E691E0A0E0B0E08D8730
S11303309E87AF87B88BBE01675F7F4F8BE691E0E6
S11303400E94210F8BE691E00E94191064E670E090
S113035080E090E00E94310740E050E0BA0184E47C
S113036096E00E94BE0B40E050E0BA0188E896E0B7
S11303700E94BE0B8DE290E0A0E0B0E089839A83F6
S1130380AB83BC8383ED9FEFAFEFBFEF8D839E8381
S1130390AF83B887BE016F5F7F4F8BE691E00E9409
S11303A0210F8BE691E00E94191064E670E080E072
S11303B090E00E94310740E050E0BA0184E496E006
S11303C00E94BE0B40E050E0BA0188E896E00E942B
S11303D0BE0B66E071E08CEC96E00E94FA0540E00A
S11303E05CE36CE176E488E896E00E94960E40E0D7
S11303F05CE36CE176E484E496E00E94960E81E08E
S113040090E090938B0180938A0160960FB6F894E4
S1130410DEBF0FBECDBFDF91CF910895CF936CE0C7
S113042071E08CEC96E00E94FA0510929301109210
S11304309201C6E02091920130919301809169016B
S113044090916A01281739070CF040C0109291016D
S113045010929001809190019091910186309105C4
S11304603CF52091920130919301C29FF001C39F0A
S1130470F00D1124E80FF91FEE0FFF1FEC56FE4F8D
S1130480608171814AE050E08CEC96E00E949D0608
S113049068E171E08CEC96E00E94ED05809190019A
S11304A09091910101969093910180939001D2CF04
S11304B08CEC96E00E94F605809192019091930154
S11304C001969093930180939201B4CF83E090E0DE
S11304D090938B0180938A01CF910895FF920F939B
S11304E01F93CF93DF93CDB7DEB728970FB6F89459
S11304F0DEBF0FBECDBF00E010E026E0F22E8091FB
S1130500690190916A01801791070CF44EC08091A3
S1130510880190918901F89EF001F99EF00D112453
S1130520DF01A00FB11FAA0FBB1FAC56BE4F8D91A8
S11305309C91092E000CAA0BBB0B89839A83AB8375
S1130540BC83C8010196E80FF91FEE0FFF1FEC569C
S1130550FE4F80819181092E000CAA0BBB0B8D8369
S11305609E83AF83B887BE016F5F7F4F8BE691E0B8
S11305700E94210F8BE691E00E94191061E08DE04A
S11305800E94180862E370E080E090E00E94310766
S113059060E08DE00E94180862E370E080E090E083
S11305A00E9431070E5F1F4FAACF28960FB6F8940A
S11305B0DEBF0FBECDBFDF91CF911F910F91FF9092
S11305C00895CF92EF920F93CC24C3948BE0E82E3E
S11305D00AE029E048E064E088E896E00E94BB0D68
S11305E097E0E92E06E025E044E064E084E496E048
S11305F00E94BB0D68E371E080E891E00E94B508B9
S11306008BE691E00F91EF90CF900C940D0F80E862
S113061091E00C944708EF92FF920F931F93CF93AE
S1130620DF9316E0C2E0D0E001E08CEC96E00E949B
S1130630BD03181619060CF080C08CEC96E00E94DD
S1130640D7037C01682F80E891E00E940F098AE0BB
S1130650E816F10451F76AE171E08CEC96E00E942F
S1130660ED0580E891E00E94220970938701609370
S113067086014AE050E08CEC96E00E94A40668E310
S113068071E080E891E00E94CA088091680140917D
S1130690860150918701811117C050936A014093DC
S11306A069010093680161E271E08CEC96E00E94BC
S11306B0ED056091690170916A014AE050E08CECAB
S11306C096E00E949D06B1CF20918E0130918F015A
S11306D080918C0190918D01129FF001139FF00D78
S11306E01124E80FF91FEE0FFF1FEC56FE4F518344
S11306F0408301968630910529F090938D01809373
S11307008C010AC010928D0110928C012F5F3F4F13
S113071030938F0120938E0120918E0130918F01AF
S11307208091690190916A012817390709F07DCFFA
S1130730D0938B01C0938A0178CFDF91CF911F9121
S11307400F91FF90EF90089580918A0190918B0111
S11307508130910561F01CF4892B39F008958230C1
S1130760910539F0039739F008950C9465010C94C0
S11307700B030C940E020C946E02FC01918D228DDD
S1130780892F90E0805C9F4F821B91098F7399277A
S11307900895FC01918D828D981731F0828DE80FB8
S11307A0F11D858D90E008958FEF9FEF0895FC0172
S11307B0918D828D981761F0828DDF01A80FB11D94
S11307C05D968C91928D9F5F9F73928F90E00895B8
S11307D08FEF9FEF0895FC01538D448D252F30E05A
S11307E0842F90E0821B930B541710F0CF9608953A
S11307F0019708958FE495E0892B49F080E090E01B
S1130800892B29F00E944F0581110C940000089552
S1130810FC01848DDF01A80FB11DA35ABF4F2C9199
S1130820848D90E001968F739927848FA689B78968
S11308302C93A089B1898C9180648C93938D848D41
S1130840981306C00288F389E02D80818F7D808310
S11308500895EF92FF920F931F93CF93DF93EC01D0
S113086081E0888F9B8D8C8D981305C0E889F98968
S1130870808185FD24C0F62E0B8D10E00F5F1F4F85
S11308800F731127E02E8C8DE8120CC00FB607FCF5
S1130890FACFE889F989808185FFF5CFCE010E94DE
S11308A00804F1CF8B8DFE01E80FF11DE35AFF4FD1
S11308B0F0820B8FEA89FB898081806207C0EE8910
S11308C0FF896083E889F98980818064808381E07D
S11308D090E0DF91CF911F910F91FF90EF900895D9
S11308E0CF93DF93EC01888D8823C9F0EA89FB89D3
S11308F0808185FD05C0A889B9898C9186FD0FC0CA
S11309000FB607FCF5CF808185FFF2CFA889B9899E
S11309108C9185FFEDCFCE010E940804E7CFDF91D3
S1130920CF910895CF92DF92EF92FF921F93CF93CE
S1130930DF93EC016A017B01122FE889F98982E0D7
S113094080834115514E61057105B1F060E079E095
S11309508DE390E0A70196010E94BE12DA01C9015D
S11309600197A109B109B695A795979587959C011B
S1130970211580E13807A8F0E889F989108260E838
S113098074E88EE190E0A70196010E94BE12DA019C
S1130990C9010197A109B109B695A79597958795BE
S11309A09C01EC85FD853083EE85FF852083188EC0
S11309B0EC89FD891083EA89FB89808180618083C9
S11309C0EA89FB89808188608083EA89FB89808148
S11309D080688083EA89FB8980818F7D8083DF91B1
S11309E0CF911F91FF90EF90DF90CF9008951F92C9
S11309F00F920FB60F9211242F938F939F93EF931F
S1130A00FF93E091DC06F091DD068081E091E2063F
S1130A10F091E30682FD12C090818091E5068F5F1C
S1130A208F732091E606821751F0E091E506F0E01D
S1130A30E453F94F958F8093E50601C08081FF91BF
S1130A40EF919F918F912F910F900FBE0F901F9058
S1130A5018951F920F920FB60F9211242F933F9364
S1130A604F935F936F937F938F939F93AF93BF93B2
S1130A70EF93FF938CEC96E00E940804FF91EF91B2
S1130A80BF91AF919F918F917F916F915F914F91A2
S1130A903F912F910F900FBE0F901F9018958CECE3
S1130AA096E00E94BD0321E0892B09F420E0822F07
S1130AB00895ECECF6E01382128288EE93E0A0E055
S1130AC0B0E084839583A683B78388E291E0918321
S1130AD0808385EC90E09587848784EC90E0978709
S1130AE0868780EC90E0918B808B81EC90E0938BF7
S1130AF0828B82EC90E0958B848B86EC90E0978BD4
S1130B00868B118E128E138E148E0895089526E00E
S1130B1040E855E260E070E08CEC96E00E949204BC
S1130B205298E9E6F0E0808183608083E89A5398E4
S1130B3080818C608083E99A279A2F9808950E9477
S1130B4078070E9486050E948705CAEFD3E00E94B9
S1130B50A4032097E1F30E94FA03F9CFCF92DF9226
S1130B60EF92FF920F931F93CF93DF936C017A015F
S1130B708B01C0E0D0E0CE15DF0581F0D8016D9186
S1130B808D01D601ED91FC910190F081E02DC6011B
S1130B900995892B11F02196EECF7E01C701DF91D3
S1130BA0CF911F910F91FF90EF90DF90CF90089518
S1130BB06115710579F0FB0101900020E9F7319787
S1130BC0AF01461B570BDC01ED91FC910280F381D0
S1130BD0E02D099480E090E008950C94D805DC01A0
S1130BE0ED91FC910190F081E02D099466E371E0B0
S1130BF00C94D8050F931F93CF93DF93EC010E94BD
S1130C00D8058C01CE010E94F605800F911FDF915B
S1130C10CF911F910F9108958F929F92AF92BF929F
S1130C20EF92FF920F931F93CF93DF93CDB7DEB76D
S1130C30A1970FB6F894DEBF0FBECDBF7C01FA01B9
S1130C40CB0119A2223008F42AE08E010F5D1F4F58
S1130C50822E912CA12CB12CBF01A50194010E94DC
S1130C60BE12F901CA01015011096A3010F4605D25
S1130C7001C0695CD8016C93232B242B252B61F7CD
S1130C80B801C7010E94D805A1960FB6F894DEBF3B
S1130C900FBECDBFDF91CF911F910F91FF90EF90C9
S1130CA0BF90AF909F908F900895CF92DF92EF9274
S1130CB0FF920F931F93CF93DF932115310581F496
S1130CC0DC01ED91FC910190F081E02D642FDF9126
S1130CD0CF911F910F91FF90EF90DF90CF900994E7
S1130CE02A30310501F577FF1DC06A017B01EC0153
S1130CF06DE20E94EF058C0144275527BA014C1977
S1130D005D096E097F092AE0CE010E940C06800F5E
S1130D10911FDF91CF911F910F91FF90EF90DF9082
S1130D20CF9008952AE0DF91CF911F910F91FF900A
S1130D30EF90DF90CF900C940C069A01AB01770FE3
S1130D40660B770B0C9455060F931F93CF93DF9389
S1130D50EC010E949D068C01CE010E94F605800FD5
S1130D60911FDF91CF911F910F9108951F920F92C0
S1130D700FB60F9211242F933F938F939F93AF93AA
S1130D80BF9380916A0790916B07A0916C07B09113
S1130D906D073091690723E0230F2D3720F4019666
S1130DA0A11DB11D05C026E8230F0296A11DB11D8A
S1130DB02093690780936A0790936B07A0936C074D
S1130DC0B0936D0780916E0790916F07A0917007A3
S1130DD0B09171070196A11DB11D80936E07909388
S1130DE06F07A0937007B0937107BF91AF919F9164
S1130DF08F913F912F910F900FBE0F901F901895D8
S1130E002FB7F89460916A0770916B0780916C0713
S1130E1090916D072FBF08953FB7F89480916E07A6
S1130E2090916F07A0917007B091710726B5A89BA8
S1130E3005C02F3F19F00196A11DB11D3FBFBA2F68
S1130E40A92F982F8827820F911DA11DB11DBC01C8
S1130E50CD0142E0660F771F881F991F4A95D1F78D
S1130E6008958F929F92AF92BF92CF92DF92EF92AA
S1130E70FF926B017C010E940C074B015C01C114C1
S1130E80D104E104F10401F10E9424100E940C0732
S1130E90DC01CB0188199909AA09BB09883E934052
S1130EA0A105B10560F321E0C21AD108E108F108F7
S1130EB088EE880E83E0981EA11CB11CC114D104D5
S1130EC0E104F10419F7DBCFFF90EF90DF90CF90AE
S1130ED0BF90AF909F908F9008958230910538F025
S1130EE0880F991F880F991F05970197F1F70895A7
S1130EF0789484B5826084BD84B5816084BD85B5F1
S1130F00826085BD85B5816085BDEEE6F0E08081B7
S1130F1081608083E1E8F0E01082808182608083D8
S1130F20808181608083E0E8F0E08081816080835B
S1130F30E1EBF0E0808184608083E0EBF0E080818D
S1130F4081608083EAE7F0E080818460808380812F
S1130F5082608083808181608083808180688083D7
S1130F601092C1000895833081F028F4813099F003
S1130F708230A1F008958730A9F08830B9F0843028
S1130F80D1F4809180008F7D03C0809180008F77A1
S1130F9080938000089584B58F7702C084B58F7DD7
S1130FA084BD08958091B0008F7703C08091B00014
S1130FB08F7D8093B0000895CF93DF9390E0FC0180
S1130FC0E456FF4F2491FC01E055FF4F84918823A0
S1130FD061F190E0880F991FFC01E253FF4FC59126
S1130FE0D491FC01EC53FF4FA591B491611109C058
S1130FF09FB7F8948881209582238883EC912E23CF
S11310000BC0623061F49FB7F8948881322F309519
S113101083238883EC912E2B2C939FBF06C08FB71C
S1131020F894E8812E2B28838FBFDF91CF91089508
S11310301F93CF93DF93282F30E0F901E857FF4F38
S11310408491F901E456FF4FD491F901E055FF4F23
S1131050C491CC23C1F0162F81110E94B307EC2F49
S1131060F0E0EE0FFF1FEC53FF4FA591B4919FB733
S1131070F894111104C08C91D095D82302C0EC913E
S1131080DE2BDC939FBFDF91CF911F910895FC016C
S1131090808191810C949D13CF93DF93EC0188811F
S11310A09981009711F00E949D13198218821D8264
S11310B01C821B821A82DF91CF9108950F931F9394
S11310C0CF93DF93EC018B016F5F7F4F8881998110
S11310D00E942614009731F0998388831B830A8326
S11310E081E001C080E0DF91CF911F910F910895BD
S11310F0CF93DF93EC0188819981892B29F08A8130
S11311009B818617970760F4CE010E945E088823AE
S113111041F08C819D81892B19F4E881F981108239
S113112081E0DF91CF910895EF92FF920F931F9387
S1131130CF93DF93EC017B018A01BA010E94780806
S1131140811104C0CE010E944C0807C01D830C838A
S1131150B701888199810E941C15CE01DF91CF913E
S11311601F910F91FF90EF900895FC01118210825E
S113117013821282158214826115710551F0FB01EC
S113118001900020E9F73197AF01461B570B0C94EF
S113119094080895CF93DF93EC016115710559F01C
S11311A0FB0101900020E9F73197AF01461B570B73
S11311B00E94940802C00E944C08CE01DF91CF9196
S11311C00895EF92FF920F931F93CF93DF936115CE
S11311D0710511F480E01CC041155105C1F07B017B
S11311E0EC018C819D818A01080F191FB801CE0181
S11311F00E947808882371F3288139818C819D812C
S1131200B701820F931F0E941C151D830C8381E07C
S1131210DF91CF911F910F91FF90EF900895CF939D
S1131220DF9300D0CDB7DEB769831A8241E050E086
S1131230BE016F5F7F4F0E94E1080F900F90DF9116
S1131240CF910895FC0180819181009711F00C9455
S1131250EC1460E070E0CB0108950F931F93DC0160
S11312601396EC910E2F10E009301105C0F5F8012A
S1131270EC5CFF4F0C94FF12DC01ED91FC910084B7
S1131280F185E02D29C0DC01ED91FC910284F38508
S1131290E02D22C0DC01ED91FC910484F585E02D64
S11312A01BC0DC01ED91FC910684F785E02D14C090
S11312B0DC01ED91FC910088F189E02D0DC0DC0189
S11312C0ED91FC910288F389E02D06C0DC01ED91DB
S11312D0FC910488F589E02D1F910F9109941F91C9
S11312E00F910895CF93DF93EC01CB01BA0126E06F
S11312F030E040E050E00E94E01262307105810568
S1131300910559F18CF46115710581059105F1F090
S11313106130710581059105C1F5E881F981048089
S1131320F581E02D65E02DC06430710581059105DE
S113133011F1D4F0653071058105910531F5E8812D
S1131340F9810480F581E02D66E01BC0E881F98114
S11313500480F581E02D64E014C0E881F981048003
S1131360F581E02D61E00DC0E881F9810480F5810B
S1131370E02D63E006C0E881F9810480F581E02D69
S113138062E0CE01DF91CF910994DF91CF9108956E
S1131390CF93DF934770552766277727FA01319754
S11313A0EC01A881B981E730F10520F4E35CFF4F3B
S11313B00C94FF121496ED91FC91159761E029C0ED
S11313C01496ED91FC91159765E023C01496ED9168
S11313D0FC91159764E01DC01496ED91FC9115974E
S11313E066E017C01496ED91FC91159762E011C068
S11313F01496ED91FC9115976AE00BC01496ED914B
S1131400FC91159768E005C01496ED91FC91159731
S113141069E0DF91CF910994CF92DF92EF92FF922E
S11314200F931F93CF93DF93EC019B81943041F092
S1131430983031F0933031F0963021F012E003C04F
S113144014E001C013E02496E12CF12CC62ED12C1B
S113145001E0C6010E2C02C0959587950A94E2F727
S11314606C8180FD602789910E9418088FEFE81A2B
S1131470F80AE11670F3DF91CF911F910F91FF905D
S1131480EF90DF90CF900895CF93DF93EC01E88144
S1131490F9810480F581E02D8A81811102C060E028
S11314A001C062E0CE010995E881F9810480F581EB
S11314B0E02D8A81811102C061E001C063E0CE01A8
S11314C009958CA59DA50E946D07E881F98104808A
S11314D0F581E02D8A81811102C060E001C062E0E3
S11314E0CE01DF91CF910994CF93DF93FC01238147
S11314F0222359F1EC0161E084810E94DC0761E060
S11315008D810E94DC078B81843011F0883039F49E
S113151061E08E810E94DC0761E08F8106C0833028
S113152011F0863021F461E08E810E94DC078FA5E2
S11315308F3F59F061E00E94DC076EA581E06827C7
S11315408FA5DF91CF910C941808DF91CF91089566
S1131550CF93DF93FC0123812223A9F0EC010190B6
S1131560F081E02D0480F581E02D60E009958FA5E0
S11315708F3F49F061E00E94DC076EA58FA5DF91E3
S1131580CF910C941808DF91CF910895437055279B
S113159066277727DC01ED91FC910480F581E02D2D
S11315A0423051056105710571F043305105610503
S11315B0710559F0413051056105710511F065E07F
S11315C005C066E003C06AE001C069E00994CF93F6
S11315D0DF93EC01CB01BA0123E030E040E050E0BE
S11315E00E94E012613071058105910581F062303D
S11315F071058105910591F0672B682B692BC1F466
S1131600E881F9810480F581E02D64E00DC0E88172
S1131610F9810480F581E02D61E006C0E881F9815B
S11316200480F581E02D62E0CE01DF91CF91099431
S1131630DF91CF9108954370552766277727DC0102
S1131640ED91FC910480F581E02D42305105610556
S1131650710571F0433051056105710559F0413050
S113166051056105710511F062E005C063E003C036
S113167061E001C060E00994CF93DF93EC0120E0C6
S113168030E0A9016C897D898E899F890E94F111BE
S113169018161CF4E8A9F9A902C0EAA9FBA9DF916C
S11316A0CF910994CF92DF92EF92FF92CF93DF9381
S11316B0FC0144A155A166A177A1452B462B472BDC
S11316C011F480E03AC0EC010E940C076B017C012C
S11316D088A599A5AAA5BBA5B701A601481B590BC6
S11316E06A0B7B0B8CA19DA1AEA1BFA14817590722
S11316F06A077B0730F32A818C859D85AE85BF857B
S1131700222321F00196A11DB11D03C00197A10957
S1131710B1098C879D87AE87BF874C855D856E85B3
S11317207F85E881F9810680F781E02DCE01099556
S1131730C8A6D9A6EAA6FBA681E0DF91CF91FF90C7
S1131740EF90DF90CF9008950F931F93FC01808951
S11317509189A289B3890485158526853785BC01BD
S1131760CD01601B710B820B930B1F910F91089598
S1131770FC0164857585868597850895FC014487F9
S1131780558766877787408B518B628B738B14AA3E
S113179015AA16AA17AA14A215A216A217A2148A89
S11317A0158A168A178A08954F925F926F927F92D4
S11317B08F929F92AF92BF92CF92DF92EF92FF925D
S11317C00F931F93CF93DF93EC01C888D988EA88DD
S11317D0FB888C859D85AE85BF85C81AD90AEA0A1F
S11317E0FB0A6C897D898E899F899B01AC010E94CB
S11317F0F6114B015C016C8D7D8D8E8D9F8D9B014F
S1131800AC010E9426109B01AC01C501B4010E94E9
S113181097100E940911C114D104E104F10499F450
S113182062307105810591050CF076C01CA21DA2E1
S11318301EA21FA21C8A1D8A1E8A1F8A1CAA1DAAF8
S11318401EAA1FAAEDC00CA91DA92EA93FA91C14EC
S11318501D041E041F04FCF41016110612061306C0
S11318604CF46C157D058E059F054CF52A812111DC
S113187053C025C0011511052105310509F44CC0DB
S11318806C157D058E059F050CF046C08A81882362
S113189009F442C036C01016110612061306ECF401
S11318A00027112798010C191D092E093F096017FB
S11318B07107820793071CF42A81222369F19B0193
S11318C0AC0188279927DC01821B930BA40BB50B71
S11318D08CAB9DABAEABBFAB1FC001151105210591
S11318E03105D1F08824992454018C189D08AE0840
S11318F0BF08681579058A059B0574F48A818111EE
S11319000BC030952095109501951F4F2F4F3F4FD9
S11319100CAB1DAB2EAB3FAB8CA89DA8AEA8BFA84B
S113192081149104A104B10489F488AD99ADAAADE0
S1131930BBAD8CAF9DAFAEAFBFAF81E01C141D0437
S11319401E041F040CF080E08A833FC0CCACDDACE5
S1131950EEACFFACA7019601C701B6010E942610A8
S11319602B013C01C501B4010E94411120E030E08B
S113197040E850E40E94F61120E030E040E85FE3E4
S11319800E9426109B01AC01C301B2010E94971072
S11319909B01AC01C701B6010E9425103B016C01FB
S11319A0FE01E05CFF4FE080F1800281138197012A
S11319B0A8010E94F111181614F473018601C701DD
S11319C0D8018CAF9DAFAEAFBFAF3FEF831A930A80
S11319D0A30AB30A8CAA9DAAAEAABFAACCACDDAC5A
S11319E0EEACFFACC701B6010E9410116CA37DA33D
S11319F08EA39FA3A701960160E074E284E799E4B3
S1131A000E9497106C8B7D8B8E8B9F8B2A8121116A
S1131A1007C0DC01CB01B0588C8B9D8BAE8BBF8B88
S1131A20DF91CF911F910F91FF90EF90DF90CF90B6
S1131A30BF90AF909F908F907F906F905F904F90EA
S1131A4008950F931F93FC0100891189228933891A
S1131A50041715072607370741F0408B518B628B1B
S1131A60738B1F910F910C94D40B1F910F910895B8
S1131A704F925F926F927F928F929F92AF92BF929A
S1131A80CF92DF92EF92FF92CF93DF93EC016A0142
S1131A907B0120E030E0A901C701B6010E94921049
S1131AA087FF04C0F7FAF094F7F8F0948C8C9D8CBF
S1131AB0AE8CBF8CA7019601C501B4010E9492109F
S1131AC0882309F449C06CA97DA98EA99FA90E9405
S1131AD041112B013C01A7019601C501B4010E94EB
S1131AE097109B01AC01C301B2010E94F6110E9440
S1131AF009116CAB7DAB8EAB9FABA701960160E087
S1131B0070E080E090E40E9497100E94691226E53C
S1131B103EE04DE25FE30E94F61120E034E244E748
S1131B2059E40E94F61168AF79AF8AAF9BAFCC8EAF
S1131B30DD8EEE8EFF8ECE01DF91CF91FF90EF9080
S1131B40DF90CF90BF90AF909F908F907F906F90D9
S1131B505F904F900C94D40BDF91CF91FF90EF9056
S1131B60DF90CF90BF90AF909F908F907F906F90B9
S1131B705F904F900895CF92EF920F93CF93DF939E
S1131B80EC0189E491E0998388836B831C861D862C
S1131B901E861F86188A198A1A8A1B8A1C8A1D8A1D
S1131BA01E8A1F8A80E090E0A0E8BFE3888F998FA7
S1131BB0AA8FBB8F1C8E1D8E1E8E1F8E88A399A389
S1131BC0AAA3BBA31CA21DA21EA21FA261E070E0D7
S1131BD07DA76CA73FEF3FA718A619A61AA61BA6B8
S1131BE04C832D830E83EF821EA61CAA1DAA1EAA57
S1131BF01FAA18AE19AE1AAE1BAE1CAE1DAE1EAE99
S1131C001FAEFE01E05CFF4F80839183A283B38308
S1131C101A82188619861A861B86CC2019F0CE01E2
S1131C200E94740A40E050E060E87FE3CE01DF9157
S1131C30CF910F91EF90CF900C94380DCF92DF920B
S1131C40EF92FF920F931F93CF93DF93EC016A01FE
S1131C507B0120E030E0A901C701B6010E94921087
S1131C6087FF04C0F7FAF094F7F8F094288D398DC3
S1131C704A8D5B8DC701B6010E949210882309F436
S1131C8046C0C88ED98EEA8EFB8E8E01005C1F4F33
S1131C90A701960160E074E284E799E40E9497103A
S1131CA0F80160837183828393838CA99DA9AEA973
S1131CB0BFA9181619061A061B064CF56C897D89EE
S1131CC08E899F899B01AC010E94F6116B017C01F6
S1131CD06C8D7D8D8E8D9F8D9B01AC010E94261095
S1131CE09B01AC01C701B6010E9497100E94091123
S1131CF06CAB7DAB8EAB9FABCE01DF91CF911F91CF
S1131D000F91FF90EF90DF90CF900C94D40BDF9164
S1131D10CF911F910F91FF90EF90DF90CF90089596
S1131D20FC01608D718D828D938D08954F925F9229
S1131D306F927F92AF92BF92CF92DF92EF92FF9217
S1131D400F931F93CF93DF93EC015A018B019A01F8
S1131D50AB016C897D898E899F890E9492108823AA
S1131D6009F44CC0C88CD98CEA8CFB8C2601370151
S1131D7077FA709477F87094A3019201B501C801C1
S1131D800E94921087FD0BC0A7019601B501C801FE
S1131D900E94F11118162CF06501780102C073013C
S1131DA0620120E030E0A901C701B6010E9492104F
S1131DB0811105C01CA21DA21EA21FA21BC0A70147
S1131DC0960160E074E284E799E40E9497109F779B
S1131DD00E9410116CA37DA38EA39FA311E020E0A9
S1131DE030E0A901C701B6010E94F11118160CF0E8
S1131DF010E01A83CC8ADD8AEE8AFF8ADF91CF91C4
S1131E001F910F91FF90EF90DF90CF90BF90AF9014
S1131E107F906F905F904F900895FC01148A08950D
S1131E20FC0184898A3058F491E0980F948BE80F70
S1131E30F11DE80FF11D7183608381E0089580E056
S1131E4008952F923F924F925F926F927F928F925A
S1131E509F92AF92BF92CF92DF92EF92FF920F9335
S1131E601F93CF93DF9300D000D01F92CDB7DEB77E
S1131E709D838C838B01312C212C19821A821B8225
S1131E80EC81FD818489381608F045C0F80124E00E
S1131E90329EE00DF11D1124C080D180E280F380D8
S1131EA0AC80BD80A30CB11CA30CB11CF5018081D6
S1131EB091810E94B80B2B013C01F5018081918135
S1131EC00E94900E4B015C01C701B60164197509AB
S1131ED08609970997FF07C090958095709561953D
S1131EE07F4F8F4F9F4F0E944111A50194010E9483
S1131EF097106B017C019B01AC01622D79818A8171
S1131F009B810E94921087FF04C02C2CD982EA8204
S1131F10FB823394B5CF20E030E0A901622D7981B2
S1131F208A819B810E94F11118160CF041C0712C1A
S1131F30EC81FD8184897816D8F56801F4E07F9EF0
S1131F40C00CD11C1124F60180809180A280B38042
S1131F50EC80FD80E70CF11CE70CF11CF70180819B
S1131F6091810E94B80BA5019401261B370B480BE5
S1131F70590BCA01B9010E944111222D39814A81AC
S1131F805B810E9497104B015C01F60140815181F5
S1131F9062817381F701808191810E94210DB501D5
S1131FA0A401F701808191810E94960E7394C0CFA1
S1131FB00F900F900F900F900F90DF91CF911F9182
S1131FC00F91FF90EF90DF90CF90BF90AF909F90D4
S1131FD08F907F906F905F904F903F902F900895D7
S1131FE0EF92FF920F931F93CF93DF937C0100E056
S1131FF010E0F70184891817A0F4E701C10FD11D7F
S1132000C10FD11D888199810E94A40B672B682B75
S1132010692B29F0888199810E94520B01E01F5F8E
S1132020E8CF802FDF91CF911F910F91FF90EF9018
S11320300895CF93DF93EC01CE010E94F00F81113C
S1132040FBCFDF91CF91089508955058BB27AA275D
S11320500E943D100C94B7110E94A91138F00E94FF
S1132060B01120F039F49F3F19F426F40C94A61112
S11320700EF4E095E7FB0C94A011E92F0E94C8111F
S113208058F3BA17620773078407950720F079F4A9
S1132090A6F50C94EA110EF4E0950B2EBA2FA02DA0
S11320A00B01B90190010C01CA01A0011124FF2701
S11320B0591B99F0593F50F4503E68F11A16F040FC
S11320C0A22F232F342F4427585FF3CF46953795FB
S11320D02795A795F0405395C9F77EF41F16BA0BC0
S11320E0620B730B840BBAF09150A1F0FF0FBB1F6E
S11320F0661F771F881FC2F70EC0BA0F621F731FB7
S1132100841F48F4879577956795B795F7959E3F13
S113211008F0B0CF9395880F08F09927EE0F9795A4
S1132120879508950E947C1108F481E008950E9427
S1132130AB100C94B7110E94B01158F00E94A91171
S113214040F029F45F3F29F00C94A01151110C9434
S1132150EB110C94A6110E94C81168F39923B1F3F2
S1132160552391F3951B550BBB27AA2762177307B9
S1132170840738F09F5F5F4F220F331F441FAA1F4D
S1132180A9F335D00E2E3AF0E0E832D09150504009
S1132190E695001CCAF72BD0FE2F29D0660F771FB7
S11321A0881FBB1F261737074807AB07B0E809F09D
S11321B0BB0B802DBF01FF2793585F4F3AF09E3F22
S11321C0510578F00C94A0110C94EB115F3FE4F3EB
S11321D0983ED4F3869577956795B795F7959F5F65
S11321E0C9F7880F911D9695879597F90895E1E0B1
S11321F0660F771F881FBB1F621773078407BA0710
S113220020F0621B730B840BBA0BEE1F88F7E0956A
S113221008950E9410116894B1110C94EB11089563
S11322200E94D01188F09F5798F0B92F9927B75181
S1132230B0F0E1F0660F771F881F991F1AF0BA9566
S1132240C9F714C0B13091F00E94EA11B1E00895C9
S11322500C94EA11672F782F8827B85F39F0B93FBB
S1132260CCF3869577956795B395D9F73EF4909519
S11322708095709561957F4F8F4F9F4F0895E89497
S113228009C097FB3EF490958095709561957F4FBA
S11322908F4F9F4F9923A9F0F92F96E9BB27939568
S11322A0F695879577956795B795F111F8CFFAF478
S11322B0BB0F11F460FF1BC06F5F7F4F8F4F9F4FA9
S11322C016C0882311F096E911C0772321F09EE807
S11322D0872F762F05C0662371F096E8862F70E06D
S11322E060E02AF09A95660F771F881FDAF7880F47
S11322F09695879597F90895990F0008550FAA0B9D
S1132300E0E8FEEF16161706E807F907C0F0121604
S11323101306E407F50798F0621B730B840B950B07
S113232039F40A2661F0232B242B252B21F408955C
S11323300A2609F4A140A6958FEF811D811D0895F9
S113234097F99F6780E870E060E008959FEF80EC64
S1132350089500240A941616170618060906089507
S113236000240A9412161306140605060895092E6D
S11323700394000C11F4882352F0BB0F40F4BF2BDC
S113238011F460FF04C06F5F7F4F8F4F9F4F08951C
S113239057FD9058440F551F59F05F3F71F0479512
S11323A0880F97FB991F61F09F3F79F087950895F7
S11323B0121613061406551FF2CF4695F1DF08C016
S11323C0161617061806991FF1CF86957105610533
S11323D008940895E894BB2766277727CB0197F9DB
S11323E008950E947C1108F48FEF08950E94091249
S11323F00C94B7110E94A91138F00E94B01120F07A
S1132400952311F00C94A0110C94A61111240C9492
S1132410EB110E94C81170F3959FC1F3950F50E022
S1132420551F629FF001729FBB27F00DB11D639F82
S1132430AA27F00DB11DAA1F649F6627B00DA11D28
S1132440661F829F2227B00DA11D621F739FB00DCE
S1132450A11D621F839FA00D611D221F749F33273E
S1132460A00D611D231F849F600D211D822F762FD7
S11324706A2F11249F5750409AF0F1F088234AF0B4
S1132480EE0FFF1FBB1F661F771F881F9150504020
S1132490A9F79E3F510580F00C94A0110C94EB1108
S11324A05F3FE4F3983ED4F3869577956795B795A7
S11324B0F795E7959F5FC1F7FE2B880F911D9695C1
S11324C0879597F9089519F416F40C94A6110C94B1
S11324D0A9120E94D011B8F39923C9F3B6F39F57F8
S11324E0550B87FF0E94B7120024A0E640EA900132
S11324F080585695979528F4805C660F771F881F3F
S113250020F026173707480730F4621B730B840B3F
S1132510202931294A2BA695179407942025312583
S11325204A2758F7660F771F881F20F026173707AA
S1132530480730F4620B730B840B200D311D411DD1
S1132540A09581F7B901842F9158880F96958795A6
S113255008959F3F31F0915020F4879577956795C2
S1132560B795880F911D9695879597F90895915081
S11325705040660F771F881FD2F70895A1E21A2EE4
S1132580AA1BBB1BFD010DC0AA1FBB1FEE1FFF1F13
S1132590A217B307E407F50720F0A21BB30BE40B63
S11325A0F50B661F771F881F991F1A9469F76095AA
S11325B07095809590959B01AC01BD01CF01089564
S11325C0052E97FB1EF400940E94F71257FD07D0C6
S11325D00E94BE1207FC03D04EF40C94F7125095DF
S11325E04095309521953F4F4F4F5F4F08959095FB
S11325F08095709561957F4F8F4F9F4F0895EE0F93
S1132600FF1F0590F491E02D09940F931F93CF932E
S1132610DF938230910510F482E090E0E09174073A
S1132620F091750720E030E0A0E0B0E0309719F1B8
S1132630408151810281138148175907C8F08417DA
S1132640950769F4109731F012960C93129713962C
S11326501C9327C0009374071093750722C021159B
S1132660310519F04217530718F49A01BD01EF011F
S1132670DF01F801DBCF21153105F9F0281B390BF7
S11326802430310580F48A819B816115710521F024
S1132690FB019383828304C090937507809374072E
S11326A0FE01329644C0FE01E20FF31F8193919321
S11326B022503109398328833AC02091720730911E
S11326C07307232B41F420910201309103013093CD
S11326D073072093720720910001309101012115A5
S11326E0310541F42DB73EB74091040150910501E5
S11326F0241B350BE0917207F0917307E217F3077F
S1132700A0F42E1B3F0B2817390778F0AC014E5F5D
S11327105F4F2417350748F04E0F5F1F5093730720
S1132720409372078193919302C0E0E0F0E0CF01FF
S1132730DF91CF911F910F910895CF93DF9300976D
S113274009F481C0FC01329713821282A0917407AC
S1132750B0917507109781F420813181820F931F06
S113276020917207309173072817390751F5F093B8
S11327707307E093720767C0ED0120E030E0CE17E5
S1132780DF0740F44A815B819E0141155105F1F058
S1132790EA01F5CFD383C28340815181840F951F11
S11327A0C817D90759F488819981840F951F029617
S11327B0918380838A819B81938382832115310550
S11327C029F4F0937507E09374073DC0E901FB8396
S11327D0EA8349915991C40FD51FEC17FD0761F4A1
S11327E080819181840F951F0296E90199838883E2
S11327F0828193819B838A83E0E0F0E012968D913D
S11328009C911397009719F0FD01DC01F7CF8D918E
S11328109C9111979D012E5F3F4F820F931F209132
S11328207207309173072817390769F4309729F430
S1132830109275071092740702C013821282B0932B
S11328407307A0937207DF91CF910895A0E0B0E0E1
S1132850ECE2F4E10C943C15EC01009721F4CB017B
S11328600E940513B4C0FC01E60FF71F9C0122501F
S11328703109E217F30708F4A8C0D9010D911C919E
S1132880119706171707B0F00530110508F49BC01F
S1132890C80104978617970708F495C002501109D8
S11328A0061B170B019311936D937C93CF010E9428
S11328B09D1389C05B01A01AB10A4C01800E911EC0
S11328C0A0917407B0917507612C712CE12CF12C47
S11328D0109709F446C08D919C911197A815B905DC
S11328E0B1F56C0142E0C40ED11CCA14DB0478F1CA
S11328F04C018A189B08640142E0C40ED11C129654
S1132900BC9012971396AC91B5E0CB16D10440F06D
S1132910B282A38391828082D9016D937C9309C092
S11329200E5F1F4F800F911FF90191838083EB2D60
S1132930FA2FE114F10431F0D7011396FC93EE93CE
S1132940129741C0F0937507E09374073CC0681672
S1132950790608F43C017D0112960D90BC91A02DDE
S1132960B7CF809172079091730788169906E1F4A6
S113297066167706C8F480910001909101010097D2
S113298041F48DB79EB74091040150910501841B19
S1132990950BE817F907C8F4F0937307E0937207EF
S11329A0F901718360830FC0CB010E9405137C0180
S11329B0009759F0A801BE010E941315CE010E9490
S11329C09D13C70104C0CE0102C080E090E0CDB7E2
S11329D0DEB7EEE00C9458151F93FC019927882765
S11329E0BC01E89411911032E9F3193010F01E3053
S11329F0C8F31B3251F01D3249F4689406C00E949A
S1132A002315610F711D811D911D119110531A30F1
S1132A10B0F33EF490958095709561957F4F8F4FFC
S1132A209F4F1F910895FB01DC0102C001900D929C
S1132A3041505040D8F70895FB01DC0101900D92FC
S1132A400020E1F70895592F482F372F262F660FBE
S1132A50771F881F991F660F771F881F991F620FA2
S1132A60731F841F951F660F771F881F991F089572
S1132A702F923F924F925F926F927F928F929F928A
S1132A80AF92BF92CF92DF92EF92FF920F931F9378
S1132A90CF93DF93CDB7DEB7CA1BDB0B0FB6F89429
S1132AA0DEBF0FBECDBF09942A88398848885F8469
S1132AB06E847D848C849B84AA84B984C884DF80DA
S1132AC0EE80FD800C811B81AA81B981CE0FD11DBE
S1132AD00FB6F894DEBF0FBECDBFED01089510E030
S1132AE0CEE6D0E004C0FE010E94FF122196CF364C
S10B2AF0D107C9F7F894FFCFE8
S1132AF8000076072000444F4E4521004D61747252
S1132B0869782046756C6C00200056616C75653ACE
S1132B18006E3D00000000002904AE05EB037004BC
S1132B28BD03D703C9030D0A006E616E00696E66A2
S1132B38006F76660000000000A80A740A0C0A2DCB
S1132B48093C0B440A1B0BE70AC60A7209C80900A8
S9030000FC
