S01100004D6178696D546573742E7372656377
S113000019C1000047C1000045C1000043C1000000
S113001041C1000040C10000A8C100003BC1000074
S113002039C1000037C1000035C1000033C10000F0
S113003031C100002FC100002DC100002BC1000000
S113004029C1000027C1000025C1000023C1000010
S113005021C100001FC100001DC1000044C70000F1
S113006019C100008CC50000C0C5000013C1000008
S113007011C100000FC100000DC100000BC1000040
S113008009C1000007C1000005C1000003C1000050
S113009001C10000FFC00000FDC00000FBC0000063
S11300A0F9C00000F7C00000F5C00000F3C0000074
S11300B0F1C00000EFC00000EDC00000EBC0000084
S11300C0E9C00000E7C00000E5C00000E3C0000094
S11300D0E1C00000DFC00000DDC00000DBC00000A4
S11300E0D9C00000B008B308A208A608AC08EA0802
S11300F0B708BB08C108C508C908CF08D308D70882
S1130100EA08DD08E108E508450A4C0A530A5A0AD8
S1130110610A790A680A790A6F0AEB0AEF0AF30A94
S1130120F70AFB0AFF0A030B00000A0B02090C0D75
S11301300E08070304010000000000000000000096
S113014000000000000000000000000000000000AB
S11301500000000012111000000000000000000068
S11301600000000000000000000000000000010288
S113017010202008081020401020408002010201B5
S1130180080402010102040810204080804020106D
S113019008040201800402018040201008040201C6
S11301A0080402010102040810204080010204082E
S11301B01020408005050505070508080808020207
S11301C002020A0A080804040404010101010101ED
S11301D001010303030303030303040707070C0CD0
S11301E00C0C0C0C0C0C0202020206060606060697
S11301F006060B0B0B0B0B0B0B0B00002200250050
S113020028002B002E0031003400020100000501FB
S113021008010B0100002100240027002A002D0002
S11302203000330001010000040107010A018C03BE
S11302302706B10311241FBECFEFD1E2DEBFCDBF2D
S113024000E00CBF12E0A0E0B2E0E6EEFBE200E06A
S11302500BBF02C007900D92A036B107D9F728E072
S1130260A0E6B2E001C01D92A637B207E1F711E0A3
S1130270C9E1D1E000E006C021970109802FFE0109
S11302800E948E13C731D10780E00807A9F724D54F
S11302900C94E215B5CE1F920F920FB60F92112453
S11302A00BB60F92CF92DF92EF92FF922F933F9370
S11302B04F935F936F937F938F939F93AF93BF936A
S11302C0EF93FF935AD66B017C0180916402909165
S11302D06502A0916602B0916702A7019601281BEE
S11302E0390B4A0B5B0B293C310541055105F0F0F4
S11302F080918802909189022091690230916A026A
S11303008217930734F401969093890280938802AC
S113031004C0109289021092880260918802709140
S113032089024AE050E08CEC97E0C7D5C0926402A1
S1130330D0926502E0926602F0926702FF91EF911B
S1130340BF91AF919F918F917F916F915F914F91E9
S11303503F912F91FF90EF90DF90CF900F900BBEC5
S11303600F900FBE0F901F9018951F920F920FB60B
S11303700F9211240BB60F92CF92DF92EF92FF925D
S11303802F933F934F935F936F937F938F939F9399
S1130390AF93BF93EF93FF93F0D56B017C018091F2
S11303A0600290916102A0916202B0916302A70180
S11303B09601281B390B4A0B5B0B293C310541057F
S11303C05105D0F08091880290918902181619067F
S11303D014F4019704C08091690290916A02909389
S11303E089028093880260918802709189024AE0B0
S11303F050E08CEC97E061D5C0926002D09261022B
S1130400E0926202F0926302FF91EF91BF91AF918B
S11304109F918F917F916F915F914F913F912F9118
S1130420FF90EF90DF90CF900F900BBE0F900FBE18
S11304300F901F901895CF93DF93CDB7DEB76097D9
S11304400FB6F894DEBF0FBECDBF40E050E068ECBD
S113045072E484E497E00E94F40E40E050E068EC1B
S113046072E488E897E00E94F40E64E477E08BE697
S113047092E00E94D70F68E877E08BE692E00E9452
S1130480D70F88E99EEFAFEFBFEF89879A87AB87D5
S1130490BC8788E691E0A0E0B0E08D879E87AF87B7
S11304A0B88BBE01675F7F4F8BE692E00E94E80F36
S11304B08BE692E00E94D31064E670E080E090E066
S11304C08DD540E050E0BA0184E497E00E94AF0C7F
S11304D040E050E0BA0188E897E00E94AF0C8DE25A
S11304E090E0A0E0B0E089839A83AB83BC8383ED82
S11304F09FEFAFEFBFEF8D839E83AF83B887BE01BD
S11305006F5F7F4F8BE692E00E94E80F8BE692E0EC
S11305100E94D31064E670E080E090E05FD540E094
S113052050E0BA0184E497E00E94AF0C40E050E050
S1130530BA0188E897E00E94AF0C66E072E08CECA8
S113054097E01ED440E05CE36CE176E488E897E051
S11305500E94640F40E05CE36CE176E484E497E09D
S11305600E94640F81E090E090938B0280938A0252
S113057060960FB6F894DEBF0FBECDBFDF91CF916A
S11305800895CF936CE072E08CEC97E0F9D310926D
S1130590930210929202C6E020919202309193024B
S11305A08091690290916A02281739070CF03DC0C6
S11305B01092910210929002809190029091910277
S11305C0863091052CF52091920230919302C29FBE
S11305D0F001C39FF00D1124E80FF91FEE0FFF1F68
S11305E0EC56FD4F608171814AE050E08CEC97E05D
S11305F064D468E172E08CEC97E0B7D38091900208
S11306009091910201969093910280939002D4CF9D
S11306108CEC97E0B2D38091920290919302019670
S11306209093930280939202B7CF83E090E09093EB
S11306308B0280938A02CF910895FF920F931F93A8
S1130640CF93DF93CDB7DEB728970FB6F894DEBF0C
S11306500FBECDBF00E010E026E0F22E80916902CB
S113066090916A02801791070CF44AC08091880225
S113067090918902F89EF001F99EF00D1124DF019A
S1130680A00FB11FAA0FBB1FAC56BD4F8D919C91FB
S1130690092E000CAA0BBB0B89839A83AB83BC8302
S11306A0C8010196E80FF91FEE0FFF1FEC56FD4F2E
S11306B080819181092E000CAA0BBB0B8D839E8334
S11306C0AF83B887BE016F5F7F4F8BE692E00E94D5
S11306D0E80F8BE692E00E94D31061E08DE0B7D57D
S11306E062E370E080E090E079D460E08DE0AFD523
S11306F062E370E080E090E071D40E5F1F4FAECFF4
S113070028960FB6F894DEBF0FBECDBFDF91CF9110
S11307101F910F91FF900895CF92EF920F93CC24E5
S1130720C3948BE0E82E0AE029E048E064E088E81E
S113073097E00E94930E97E0E92E06E025E044E05E
S113074064E084E497E00E94930E68E372E080E83A
S113075092E016D68BE692E00F91EF90CF900C9436
S1130760D40F80E892E0A1C5EF92FF920F931F93FC
S1130770CF93DF9316E0C2E0D0E001E08CEC97E089
S113078098D0181619060CF078C08CEC97E0ABD012
S11307907C01682F80E892E049D68AE0E816F104EB
S11307A069F76AE172E08CEC97E0DFD280E892E0CE
S11307B050D670938702609386024AE050E08CEC36
S11307C097E081D368E372E080E892E0EDD5809110
S11307D068024091860250918702811115C050939E
S11307E06A02409369020093680261E272E08CEC51
S11307F097E0BBD26091690270916A024AE050E0CE
S11308008CEC97E05AD3BACF20918E0230918F02AC
S113081080918C0290918D02129FF001139FF00D34
S11308201124E80FF91FEE0FFF1FEC56FD4F518303
S1130830408301968630910529F090938D02809330
S11308408C020AC010928D0210928C022F5F3F4FCF
S113085030938F0220938E0220918E0230918F026A
S11308608091690290916A022817390709F086CFAE
S1130870D0938B02C0938A0281CFDF91CF911F91D5
S11308800F91FF90EF90089580918A0290918B02CE
S11308908130910559F01CF4892B39F00895823088
S11308A0910529F0039721F00895C5CD5DCF69CE58
S11308B0C4CEFC01918D228D892F90E0805C9F4FE6
S11308C0821B91098F7399270895FC01918D828D64
S11308D0981731F0828DE80FF11D858D90E0089511
S11308E08FEF9FEF0895FC01918D828D981761F031
S11308F0828DDF01A80FB11D5D968C91928D9F5F53
S11309009F73928F90E008958FEF9FEF0895FC01FD
S1130910538D448D252F30E0842F90E0821B930B60
S1130920541710F0CF960895019708958EE196E03C
S1130930892B39F080E090E0892B19F07FD1811167
S113094025C080E090E0892B41F080E090E0892B85
S113095021F00E94000081111CC080E090E0892BEE
S113096041F080E090E0892B21F00E940000811189
S113097013C080E090E0892BA1F080E090E0892B07
S113098081F00E94000081110AC008950E940000B5
S1130990D8CF0E940000E1CF0E940000EACF0C945F
S11309A000000895FC01848DDF01A80FB11DA35A36
S11309B0BF4F2C91848D90E001968F739927848F7B
S11309C0A689B7892C93A089B1898C9180648C9372
S11309D0938D848D981306C00288F389E02D80815D
S11309E08F7D80830895EF92FF920F931F93CF938F
S11309F0DF93EC0181E0888F9B8D8C8D981305C06B
S1130A00E889F989808185FD23C0F62E0B8D10E0DD
S1130A100F5F1F4F0F731127E02E8C8DE8120BC050
S1130A200FB607FCFACFE889F989808185FFF5CFF5
S1130A30CE01B8DFF2CF8B8DFE01E80FF11DE35A32
S1130A40FF4FF0820B8FEA89FB898081806207C0A7
S1130A50EE89FF896083E889F989808180648083D5
S1130A6081E090E0DF91CF911F910F91FF90EF9083
S1130A700895CF93DF93EC01888D8823C1F0EA8930
S1130A80FB89808185FD05C0A889B9898C9186FD83
S1130A900EC00FB607FCF5CF808185FFF2CFA88981
S1130AA0B9898C9185FFEDCFCE017CDFE8CFDF9152
S1130AB0CF910895CF92DF92EF92FF921F93CF933D
S1130AC0DF93EC016A017B01122FE889F98982E046
S1130AD080834115514E61057105B1F060E079E004
S1130AE08DE390E0A70196010E945013DA01C90139
S1130AF00197A109B109B695A795979587959C018A
S1130B00211580E13807A8F0E889F989108260E8A6
S1130B1074E88EE190E0A70196010E945013DA0177
S1130B20C9010197A109B109B695A795979587952C
S1130B309C01EC85FD853083EE85FF852083188E2E
S1130B40EC89FD891083EA89FB8980818061808337
S1130B50EA89FB89808188608083EA89FB898081B6
S1130B6080688083EA89FB8980818F7D8083DF911F
S1130B70CF911F91FF90EF90DF90CF9008951F9237
S1130B800F920FB60F9211240BB60F922F938F93DF
S1130B909F93EF93FF93E091DC07F091DD07808151
S1130BA0E091E207F091E30782FD12C09081809109
S1130BB0E5078F5F8F732091E607821751F0E0916C
S1130BC0E507F0E0E453F84F958F8093E50701C003
S1130BD08081FF91EF919F918F912F910F900BBE88
S1130BE00F900FBE0F901F9018951F920F920FB683
S1130BF00F9211240BB60F922F933F934F935F9351
S1130C006F937F938F939F93AF93BF93EF93FF93D0
S1130C108CEC97E0C7DEFF91EF91BF91AF919F916C
S1130C208F917F916F915F914F913F912F910F9091
S1130C300BBE0F900FBE0F901F9018958CEC97E091
S1130C4038DE21E0892B09F420E0822F0895ECECB2
S1130C50F7E01382128288EE93E0A0E0B0E0848390
S1130C609583A683B78388E292E09183808385ECA1
S1130C7090E09587848784EC90E09787868780EC62
S1130C8090E0918B808B81EC90E0938B828B82EC53
S1130C9090E0958B848B86EC90E0978B868B118EFD
S1130CA0128E138E148E0895089526E040E855E2BE
S1130CB060E070E08CEC97E0FDDE6C98EAE6F0E032
S1130CC0808183608083EC9A6D9880818C608083BE
S1130CD0ED9A279A2F980895C6D1E6DFE6DFC6E994
S1130CE0D4E0D2DD2097E9F321DEFBCFCF92DF926F
S1130CF0EF92FF920F931F93CF93DF936C017A01CE
S1130D008B01C0E0D0E0CE15DF0581F0D8016D91F4
S1130D108D01D601ED91FC910190F081E02DC60189
S1130D201995892B11F02196EECF7E01C701DF9131
S1130D30CF911F910F91FF90EF90DF90CF90089586
S1130D406115710579F0FB0101900020E9F73197F5
S1130D50AF01461B570BDC01ED91FC910280F3813E
S1130D60E02D199480E090E00895EACFDC01ED9144
S1130D70FC910190F081E02D199466E372E0E0CFDC
S1130D800F931F93CF93DF93EC01DADF8C01CE0135
S1130D90F4DF800F911FDF91CF911F910F91089580
S1130DA08F929F92AF92BF92EF92FF920F931F93F5
S1130DB0CF93DF93CDB7DEB7A1970FB6F894DEBF1C
S1130DC00FBECDBF7C01FA01CB0119A2223008F479
S1130DD02AE08E010F5D1F4F822E912CA12CB12C85
S1130DE0BF01A50194010E945013F901CA010150E9
S1130DF011096A3010F4605D01C0695CD8016C931C
S1130E00232B242B252B61F7B801C70199DFA19669
S1130E100FB6F894DEBF0FBECDBFDF91CF911F9107
S1130E200F91FF90EF90BF90AF909F908F90089597
S1130E30CF92DF92EF92FF920F931F93CF93DF93A2
S1130E402115310581F4DC01ED91FC910190F081D3
S1130E50E02D642FDF91CF911F910F91FF90EF90C0
S1130E60DF90CF9019942A303105F1F477FF1BC03D
S1130E706A017B01EC016DE279DF8C01442755277F
S1130E80BA014C195D096E097F092AE0CE0188DF99
S1130E90800F911FDF91CF911F910F91FF90EF90E1
S1130EA0DF90CF9008952AE0DF91CF911F910F91A9
S1130EB0FF90EF90DF90CF9073CF9A01AB01770F43
S1130EC0660B770BB5CF0F931F93CF93DF93EC0192
S1130ED0F4DF8C01CE0151DF800F911FDF91CF91A0
S1130EE01F910F9108951F920F920FB60F92112424
S1130EF02F933F938F939F93AF93BF9380916A08EF
S1130F0090916B08A0916C08B0916D0830916908BC
S1130F1023E0230F2D3720F40196A11DB11D05C038
S1130F2026E8230F0296A11DB11D20936908809322
S1130F306A0890936B08A0936C08B0936D08809135
S1130F406E0890916F08A0917008B0917108019695
S1130F50A11DB11D80936E0890936F08A093700833
S1130F60B0937108BF91AF919F918F913F912F9151
S1130F700F900FBE0F901F9018952FB7F8946091A3
S1130F806A0870916B0880916C0890916D082FBF6E
S1130F9008953FB7F89480916E0890916F08A091DE
S1130FA07008B091710826B5A89B05C02F3F19F0B1
S1130FB00196A11DB11D3FBFBA2FA92F982F8827D5
S1130FC0820F911DA11DB11DBC01CD0142E0660F30
S1130FD0771F881F991F4A95D1F708958F929F9282
S1130FE0AF92BF92CF92DF92EF92FF926B017C019E
S1130FF0D0DF4B015C01C114D104E104F104F9F028
S11310000E94DD10C6DFDC01CB0188199909AA0909
S1131010BB09883E9340A105B10568F321E0C21ADB
S1131020D108E108F10888EE880E83E0981EA11C1F
S1131030B11CC114D104E104F10421F7DCCFFF9009
S1131040EF90DF90CF90BF90AF909F908F900895D6
S11310508230910538F0880F991F880F991F0597E2
S11310600197F1F70895789484B5826084BD84B5BE
S1131070816084BD85B5826085BD85B5816085BD8F
S1131080EEE6F0E0808181608083E1E8F0E01082A8
S1131090808182608083808181608083E0E8F0E0E9
S11310A0808181608083E1EBF0E0808184608083D3
S11310B0E0EBF0E0808181608083E1E9F0E0808111
S11310C082608083808181608083E0E9F0E08081B8
S11310D081608083E1EAF0E08081826080838081A6
S11310E081608083E0EAF0E0808181608083E1E2D6
S11310F0F1E0808182608083808181608083E0E28E
S1131100F1E0808181608083EAE7F0E0808184609F
S113111080838081826080838081816080838081FC
S1131120806880831092C100089590E0FC0131979B
S1131130E231F10508F04EC08827EE58FF4F8F4F7B
S11311400C948E13809180008F7703C0809180006F
S11311508F7D80938000089580918000877FF9CFF0
S113116084B58F7702C084B58F7D84BD0895809146
S1131170B0008F7703C08091B0008F7D8093B00062
S11311800895809190008F7707C0809190008F7DA3
S113119003C080919000877F809390000895809190
S11311A0A0008F7707C08091A0008F7D03C080913D
S11311B0A000877F8093A0000895809120018F77FD
S11311C007C0809120018F7D03C080912001877F1B
S11311D0809320010895CF93DF9390E0FC01E259BE
S11311E0FE4F2491FC01EC54FE4F8491882361F15D
S11311F090E0880F991FFC01EC5EFD4FC591D491DE
S1131200FC01E650FE4FA591B491611109C09FB74E
S1131210F8948881209582238883EC912E230BC037
S1131220623061F49FB7F8948881322F309583231C
S11312308883EC912E2B2C939FBF06C08FB7F89414
S1131240E8812E2B28838FBFDF91CF9108951F93C0
S1131250CF93DF93282F30E0F901E85DFE4F8491AE
S1131260F901E259FE4FD491F901EC54FE4FC491B7
S1131270CC23B9F0162F811158DFEC2FF0E0EE0FDC
S1131280FF1FE650FE4FA591B4919FB7F89411113A
S113129004C08C91D095D82302C0EC91DE2BDC9352
S11312A09FBFDF91CF911F910895FC0180819181AF
S11312B00C942E14CF93DF93EC01888199810097CD
S11312C011F00E942E14198218821D821C821B8226
S11312D01A82DF91CF9108950F931F93CF93DF93D9
S11312E0EC018B016F5F7F4F888199810E94B71455
S11312F0009731F0998388831B830A8381E001C0BE
S113130080E0DF91CF911F910F910895CF93DF93E8
S1131310EC0188819981892B29F08A819B81861728
S1131320970758F4CE01D8DF882341F08C819D8142
S1131330892B19F4E881F981108281E0DF91CF9142
S11313400895EF92FF920F931F93CF93DF93EC01D5
S11313507B018A01BA01DADF811103C0CE01AADF61
S113136007C01D830C83B701888199810E94C6152B
S1131370CE01DF91CF911F910F91FF90EF900895CF
S1131380FC0111821082138212821582148261156B
S1131390710549F0FB0101900020E9F73197AF0195
S11313A0461B570BCECF0895CF93DF93EC01611505
S11313B0710551F0FB0101900020E9F73197AF016D
S11313C0461B570BBEDF01C075DFCE01DF91CF9105
S11313D00895EF92FF920F931F93CF93DF936115BC
S11313E0710511F480E01BC041155105B9F07B0172
S11313F0EC018C819D818A01080F191FB801CE016F
S113140085DF882379F3288139818C819D81B70117
S1131410820F931F0E94C6151D830C8381E0DF9108
S1131420CF911F910F91FF90EF900895CF93DF9389
S11314301F921F92CDB7DEB769831A8241E050E054
S1131440BE016F5F7F4FC5DF0F900F90DF91CF918B
S11314500895FC0180819181009711F00C949715F7
S113146060E070E0CB0108950F931F93DC011396A5
S11314700C91139710E009301105D8F5F80188276D
S1131480EC57FF4F8F4F0C948E13ED91FC911197F5
S11314900084F185E02D29C0ED91FC91119702841F
S11314A0F385E02D22C0ED91FC9111970484F5851C
S11314B0E02D1BC0ED91FC9111970684F785E02D7A
S11314C014C0ED91FC9111970088F189E02D0DC0B5
S11314D0ED91FC9111970288F389E02D06C0ED91FE
S11314E0FC9111970488F589E02DCD011F910F918E
S11314F019941F910F910895CF93DF93EC01CB01C1
S1131500BA0126E030E040E050E00E9472136230FD
S113151071058105910559F18CF4611571058105F9
S11315209105F1F06130710581059105C1F5E881FE
S1131530F9810480F581E02D65E02DC064307105EA
S11315408105910511F1D4F065307105810591058E
S113155031F5E881F9810480F581E02D66E01BC056
S1131560E881F9810480F581E02D64E014C0E8810C
S1131570F9810480F581E02D61E00DC0E881F981F5
S11315800480F581E02D63E006C0E881F9810480E0
S1131590F581E02D62E0CE01DF91CF911994DF91C6
S11315A0CF910895CF93DF93DC01477055276627C9
S11315B07727FA013197CD91DC911197E730F10546
S11315C030F48827E357FF4F8F4F0C948E13EC8130
S11315D0FD8161E01BC0EC81FD8165E017C0EC81F9
S11315E0FD8164E013C0EC81FD8166E00FC0EC81F5
S11315F0FD8162E00BC0EC81FD816AE007C0EC81F3
S1131600FD8168E003C0EC81FD8169E0CD01DF91DB
S1131610CF911994CF92DF92EF92FF920F931F9381
S1131620CF93DF93EC019B81943041F0983031F0FB
S1131630933031F0963021F012E003C014E001C081
S113164013E02496E12CF12CC62ED12C01E0C60126
S11316500E2C02C0959587950A94E2F76C8180FD63
S113166060278991F4DD8FEFE81AF80AE11678F320
S1131670DF91CF911F910F91FF90EF90DF90CF906A
S11316800895CF93DF93EC01E881F9810480F5811B
S1131690E02D8A81811102C060E001C062E0CE01C8
S11316A01995E881F9810480F581E02D8A81811101
S11316B002C061E001C063E0CE0119958CA59DA52F
S11316C0C7DCE881F9810480F581E02D8A818111EC
S11316D002C060E001C062E0CE01DF91CF911994B5
S11316E0CF93DF93FC012381222329F1EC0161E0F4
S11316F0848171DD61E08D816EDD8B81843011F038
S1131700883031F461E08E8166DD61E08F8106C04E
S1131710833011F0863019F461E08E815CDD8FA591
S11317208F3F49F061E057DD6EA581E068278FA502
S1131730DF91CF918CCDDF91CF910895CF93DF933B
S1131740FC012381222399F0EC010190F081E02D2A
S11317500480F581E02D60E019958FA58F3F39F065
S113176061E039DD6EA58FA5DF91CF9170CDDF915A
S1131770CF9108954370552766277727DC01ED91B3
S1131780FC910480F581E02D42305105610571051D
S113179071F0433051056105710559F0413051052F
S11317A06105710511F065E005C066E003C06AE0FB
S11317B001C069E01994CF93DF93EC01CB01BA0126
S11317C023E030E040E050E08DD7613071058105C1
S11317D0910581F0623071058105910591F0672BC7
S11317E0682B692BC1F4E881F9810480F581E02D2F
S11317F064E00DC0E881F9810480F581E02D61E0A9
S113180006C0E881F9810480F581E02D62E0CE0113
S1131810DF91CF911994DF91CF91089543705527AB
S113182066277727DC01ED91FC910480F581E02D9A
S1131830423051056105710571F043305105610570
S1131840710559F0413051056105710511F062E0EF
S113185005C063E003C061E001C060E01994CF9368
S1131860DF93EC0120E030E0A9016C897D898E8949
S11318709F8958D618161CF4E8A9F9A902C0EAA948
S1131880FBA9DF91CF911994CF92DF92EF92FF924F
S1131890CF93DF93FC0144A155A166A177A1452B09
S11318A0462B472B11F480E039C0EC0172DB6B014D
S11318B07C0188A599A5AAA5BBA5B701A601481BCB
S11318C0590B6A0B7B0B8CA19DA1AEA1BFA148173C
S11318D059076A077B0738F32A818C859D85AE8575
S11318E0BF85222321F00196A11DB11D03C00197DC
S11318F0A109B1098C879D87AE87BF874C855D851B
S11319006E857F85E881F9810680F781E02DCE011F
S11319101995C8A6D9A6EAA6FBA681E0DF91CF91C6
S1131920FF90EF90DF90CF9008950F931F93FC01E9
S113193080899189A289B38904851585268537858F
S1131940BC01CD01601B710B820B930B1F910F9196
S11319500895FC0164857585868597850895FC0145
S11319604487558766877787408B518B628B738B4F
S113197014AA15AA16AA17AA14A215A216A217A287
S1131980148A158A168A178A08954F925F926F9265
S11319907F928F929F92AF92BF92CF92DF92EF92FB
S11319A0FF920F931F93CF93DF93EC01C888D988DC
S11319B0EA88FB888C859D85AE85BF85C81AD90ABF
S11319C0EA0AFB0A6C897D898E899F899B01AC0197
S11319D0ADD54B015C016C8D7D8D8E8D9F8D9B01F2
S11319E0AC01EDD39B01AC01C501B40150D4B7D413
S11319F0C114D104E104F10499F462307105810544
S1131A0091050CF076C01CA21DA21EA21FA21C8A66
S1131A101D8A1E8A1F8A1CAA1DAA1EAA1FAAE4C008
S1131A200CA91DA92EA93FA91C141D041E041F04E2
S1131A30FCF410161106120613064CF46C157D0501
S1131A408E059F054CF52A81211153C025C001152F
S1131A5011052105310509F44CC06C157D058E0571
S1131A609F050CF046C08A81882309F442C036C021
S1131A701016110612061306ECF40027112798011C
S1131A800C191D092E093F09601771078207930776
S1131A901CF42A81222369F19B01AC018827992730
S1131AA0DC01821B930BA40BB50B8CAB9DABAEABD3
S1131AB0BFAB1FC00115110521053105D1F08824E4
S1131AC0992454018C189D08AE08BF08681579053F
S1131AD08A059B0574F48A8181110BC03095209589
S1131AE0109501951F4F2F4F3F4F0CAB1DAB2EABE5
S1131AF03FAB8CA89DA8AEA8BFA881149104A104F3
S1131B00B10489F488AD99ADAAADBBAD8CAF9DAFDE
S1131B10AEAFBFAF81E01C141D041E041F040CF003
S1131B2080E08A8338C0CCACDDACEEACFFACA7015E
S1131B309601C701B60143D32B013C01C501B40191
S1131B4041D420E030E040E850E4F0D420E030E03C
S1131B5040E85FE334D39B01AC01C301B20197D3E6
S1131B609B01AC01C701B60129D33B016C01FE0105
S1131B70E05CFF4FE080F180028113819701A801AE
S1131B80D1D4181614F473018601C701D8018CAF9F
S1131B909DAFAEAFBFAF3FEF831A930AA30AB30A58
S1131BA08CAA9DAAAEAABFAACCACDDACEEACFFACAD
S1131BB0C701B601D9D36CA37DA38EA39FA3A701AC
S1131BC0960160E074E284E799E461D36C8B7D8BC9
S1131BD08E8B9F8B2A81211107C0DC01CB01B05869
S1131BE08C8B9D8BAE8BBF8BDF91CF911F910F910F
S1131BF0FF90EF90DF90CF90BF90AF909F908F9029
S1131C007F906F905F904F9008950F931F93FC0106
S1131C100089118922893389041715072607370794
S1131C2039F0408B518B628B738B1F910F91ADCE2A
S1131C301F910F9108954F925F926F927F928F92AE
S1131C409F92AF92BF92CF92DF92EF92FF92CF9387
S1131C50DF93EC016A017B0120E030E0A901C701B8
S1131C60B60111D387FF04C0F7FAF094F7F8F094A3
S1131C708C8C9D8CAE8CBF8CA7019601C501B401E0
S1131C8002D3882309F440C06CA97DA98EA99FA919
S1131C9099D32B013C01A7019601C501B401F7D2E8
S1131CA09B01AC01C301B20141D459D36CAB7DABF0
S1131CB08EAB9FABA701960160E070E080E090E4FA
S1131CC0E6D29BD426E53EE04DE25FE32FD420E04C
S1131CD034E244E759E42AD468AF79AF8AAF9BAFC2
S1131CE0CC8EDD8EEE8EFF8ECE01DF91CF91FF90F4
S1131CF0EF90DF90CF90BF90AF909F908F907F90A8
S1131D006F905F904F9041CEDF91CF91FF90EF9015
S1131D10DF90CF90BF90AF909F908F907F906F9007
S1131D205F904F900895CF92EF920F93CF93DF93EC
S1131D30EC0189E492E0998388836B831C861D8679
S1131D401E861F86188A198A1A8A1B8A1C8A1D8A6B
S1131D501E8A1F8A80E090E0A0E8BFE3888F998FF5
S1131D60AA8FBB8F1C8E1D8E1E8E1F8E88A399A3D7
S1131D70AAA3BBA31CA21DA21EA21FA261E070E025
S1131D807DA76CA73FEF3FA718A619A61AA61BA606
S1131D904C832D830E83EF821EA61CAA1DAA1EAAA5
S1131DA01FAA18AE19AE1AAE1BAE1CAE1DAE1EAEE7
S1131DB01FAEFE01E05CFF4F80839183A283B38357
S1131DC01A82188619861A861B86CC2011F0CE0139
S1131DD087DC40E050E060E87FE3CE01DF91CF9103
S1131DE00F91EF90CF9027CFCF92DF92EF92FF9297
S1131DF00F931F93CF93DF93EC016A017B0120E0E3
S1131E0030E0A901C701B6013ED287FF04C0F7FA4A
S1131E10F094F7F8F094288D398D4A8D5B8DC701C5
S1131E20B60131D2882309F440C0C88ED98EEA8E17
S1131E30FB8E8E01005C1F4FA701960160E074E2E7
S1131E4084E799E424D2F8016083718382839383C5
S1131E508CA99DA9AEA9BFA9181619061A061B06B6
S1131E6024F56C897D898E899F899B01AC015ED3A1
S1131E706B017C016C8D7D8D8E8D9F8D9B01AC01E2
S1131E809ED19B01AC01C701B60101D268D26CABF3
S1131E907DAB8EAB9FABCE01DF91CF911F910F91A4
S1131EA0FF90EF90DF90CF9070CDDF91CF911F9195
S1131EB00F91FF90EF90DF90CF900895FC01608D1B
S1131EC0718D828D938D08954F925F926F927F9260
S1131ED0AF92BF92CF92DF92EF92FF920F931F9334
S1131EE0CF93DF93EC015A018B019A01AB016C890A
S1131EF07D898E899F89C7D1882309F446C0C88CFF
S1131F00D98CEA8CFB8C2601370177FA709477F828
S1131F107094A3019201B501C801B5D187FD0AC02F
S1131F20A7019601B501C801FDD218162CF0650170
S1131F30780102C07301620120E030E0A901C70109
S1131F40B601A1D1811105C01CA21DA21EA21FA20F
S1131F5018C0A701960160E074E284E799E497D180
S1131F609F7702D26CA37DA38EA39FA311E020E0F0
S1131F7030E0A901C701B601D5D218160CF010E063
S1131F801A83CC8ADD8AEE8AFF8ADF91CF911F9172
S1131F900F91FF90EF90DF90CF90BF90AF907F9024
S1131FA06F905F904F900895FC01148A0895FC018E
S1131FB084898A3058F491E0980F948BE80FF11DCE
S1131FC0E80FF11D7183608381E0089580E0089536
S1131FD02F923F924F925F926F927F928F929F9235
S1131FE0AF92BF92CF92DF92EF92FF920F931F9323
S1131FF0CF93DF9300D01F921F92CDB7DEB79D839E
S11320008C838B01312C212C19821A821B82EC8146
S1132010FD818489381608F040C0F80124E0329E1E
S1132020E00DF11D1124C080D180E280F380AC80EA
S1132030BD80A30CB11CA30CB11CF501808191815E
S113204088DC2B013C01F5018081918137DF4B0154
S11320505C01C701B601641975098609970997FFE0
S113206007C090958095709561957F4F8F4F9F4FD6
S1132070A9D1A50194010BD16B017C019B01AC0199
S1132080622D79818A819B81FED087FF04C02C2C2C
S1132090D982EA82FB823394BACF20E030E0A901EE
S11320A0622D79818A819B813DD218160CF03CC047
S11320B0712CEC81FD8184897816B0F56801F4E017
S11320C07F9EC00CD11C1124F60180809180A280D7
S11320D0B380EC80FD80E70CF11CE70CF11CF701E8
S11320E08081918136DCA5019401261B370B480BB6
S11320F0590BCA01B90166D1222D39814A815B810C
S1132100C6D04B015C01F60140815181628173812B
S1132110F7018081918179DDB501A401F701808106
S11321209181D2DE7394C5CF0F900F900F900F90D2
S11321300F90DF91CF911F910F91FF90EF90DF905F
S1132140CF90BF90AF909F908F907F906F905F9053
S11321504F903F902F900895EF92FF920F931F930B
S1132160CF93DF937C0100E010E0F7018489181716
S113217090F4E701C10FD11DC10FD11D8881998150
S1132180D4DB672B682B692B21F0888199817CDB58
S113219001E01F5FEACF802FDF91CF911F910F9154
S11321A0FF90EF900895CF93DF93EC01CE01D4DF3D
S11321B08111FCCFDF91CF91089508955058BB272A
S11321C0AA270ED075C166D130F06BD120F031F45E
S11321D09F3F11F41EF45BC10EF4E095E7FB51C17F
S11321E0E92F77D180F3BA1762077307840795073D
S11321F018F071F49EF58FC10EF4E0950B2EBA2FF2
S1132200A02D0B01B90190010C01CA01A0011124F8
S1132210FF27591B99F0593F50F4503E68F11A16A4
S1132220F040A22F232F342F4427585FF3CF469535
S113223037952795A795F0405395C9F77EF41F1657
S1132240BA0B620B730B840BBAF09150A1F0FF0F21
S1132250BB1F661F771F881FC2F70EC0BA0F621F0D
S1132260731F841F48F4879577956795B795F795FD
S11322709E3F08F0B3CF9395880F08F09927EE0F8F
S1132280979587950895D9D008F481E008950CD0E6
S11322900FC107D140F0FED030F021F45F3F19F0B8
S11322A0F0C0511139C1F3C014D198F39923C9F383
S11322B05523B1F3951B550BBB27AA276217730748
S11322C0840738F09F5F5F4F220F331F441FAA1FFC
S11322D0A9F333D00E2E3AF0E0E830D091505040BC
S11322E0E695001CCAF729D0FE2F27D0660F771F6A
S11322F0881FBB1F261737074807AB07B0E809F04C
S1132300BB0B802DBF01FF2793585F4F2AF09E3FE0
S1132310510568F0B6C000C15F3FECF3983EDCF3B2
S1132320869577956795B795F7959F5FC9F7880F59
S1132330911D9695879597F90895E1E0660F771FAB
S1132340881FBB1F621773078407BA0720F0621B3C
S1132350730B840BBA0BEE1F88F7E095089504D035
S11323606894B111D9C00895BCD088F09F5790F0FB
S1132370B92F9927B751A0F0D1F0660F771F881FA6
S1132380991F1AF0BA95C9F712C0B13081F0C3D0C1
S1132390B1E00895C0C0672F782F8827B85F39F05F
S11323A0B93FCCF3869577956795B395D9F73EF405
S11323B090958095709561957F4F8F4F9F4F0895AD
S11323C0E89409C097FB3EF49095809570956195CB
S11323D07F4F8F4F9F4F9923A9F0F92F96E9BB2781
S11323E09395F695879577956795B795F111F8CFFD
S11323F0FAF4BB0F11F460FF1BC06F5F7F4F8F4F68
S11324009F4F16C0882311F096E911C0772321F05D
S11324109EE8872F762F05C0662371F096E8862FF5
S113242070E060E02AF09A95660F771F881FDAF74C
S1132430880F9695879597F90895990F0008550F79
S1132440AA0BE0E8FEEF16161706E807F907C0F036
S113245012161306E407F50798F0621B730B840B3E
S1132460950B39F40A2661F0232B242B252B21F418
S113247008950A2609F4A140A6958FEF811D811DB8
S1132480089597F99F6780E870E060E008959FEFF2
S113249080EC089500240A941616170618060906F7
S11324A0089500240A9412161306140605060895C6
S11324B0092E0394000C11F4882352F0BB0F40F44E
S11324C0BF2B11F460FF04C06F5F7F4F8F4F9F4F8E
S11324D0089557FD9058440F551F59F05F3F71F010
S11324E04795880F97FB991F61F09F3F79F0879577
S11324F00895121613061406551FF2CF4695F1DF00
S113250008C0161617061806991FF1CF869571058F
S1132510610508940895E894BB2766277727CB01C3
S113252097F908958ADF08F48FEF08950BD0C0CF90
S1132530B1DF28F0B6DF18F0952309F0A2CFA7CFBA
S11325401124EACFC6DFA0F3959FD1F3950F50E095
S1132550551F629FF001729FBB27F00DB11D639F51
S1132560AA27F00DB11DAA1F649F6627B00DA11DF7
S1132570661F829F2227B00DA11D621F739FB00D9D
S1132580A11D621F839FA00D611D221F749F33270D
S1132590A00D611D231F849F600D211D822F762FA6
S11325A06A2F11249F5750408AF0E1F088234AF0A3
S11325B0EE0FFF1FBB1F661F771F881F91505040EF
S11325C0A9F79E3F510570F05CCFA6CF5F3FECF3B7
S11325D0983EDCF3869577956795B795F795E795DB
S11325E09F5FC1F7FE2B880F911D9695879597F9EC
S11325F0089511F40EF44BCF3EC073DFD0F399234A
S1132600D9F3CEF39F57550B87FF43D00024A0E6A0
S113261040EA900180585695979528F4805C660F9F
S1132620771F881F20F026173707480730F4621BEE
S1132630730B840B202931294A2BA69517940794F0
S1132640202531254A2758F7660F771F881F20F069
S113265026173707480730F4620B730B840B200DE1
S1132660311D411DA09581F7B901842F9158880F20
S11326709695879508959F3F31F0915020F4879562
S113268077956795B795880F911D9695879597F9D6
S1132690089591505040660F771F881FD2F7089510
S11326A0A1E21A2EAA1BBB1BFD010DC0AA1FBB1F52
S11326B0EE1FFF1FA217B307E407F50720F0A21BC4
S11326C0B30BE40BF50B661F771F881F991F1A9431
S11326D069F760957095809590959B01AC01BD015B
S11326E0CF010895052E97FB16F400940FD057FDE3
S11326F005D0D6DF07FC02D046F408C050954095BB
S1132700309521953F4F4F4F5F4F08959095809599
S1132710709561957F4F8F4F9F4F0895EE0FFF1F68
S1132720881F8BBF0790F691E02D19940F931F9388
S1132730CF93DF938230910510F482E090E0E09132
S11327407408F091750820E030E0A0E0B0E0309724
S113275019F1408151810281138148175907C8F04A
S11327608417950769F4109731F012960C93129719
S113277013961C9327C0009374081093750822C005
S11327802115310519F04217530718F49A01BD01B8
S1132790EF01DF01F801DBCF21153105F9F0281B2A
S11327A0390B2430310580F48A819B8161157105D0
S11327B021F0FB019383828304C090937508809376
S11327C07408FE01329644C0FE01E20FF31F8193A8
S11327D0919322503109398328833AC02091720899
S11327E030917308232B41F42091020230910302AB
S11327F030937308209372082091000230910102F3
S11328002115310541F42DB73EB740910402509192
S11328100502241B350BE0917208F0917308E2174E
S1132820F307A0F42E1B3F0B2817390778F0AC01EF
S11328304E5F5F4F2417350748F04E0F5F1F5093CC
S11328407308409372088193919302C0E0E0F0E032
S1132850CF01DF91CF911F910F910895CF93DF9313
S1132860009709F481C0FC01329713821282A0916F
S11328707408B0917508109781F420813181820F1A
S1132880931F20917208309173082817390751F566
S1132890F0937308E093720867C0ED0120E030E024
S11328A0CE17DF0740F44A815B819E014115510533
S11328B0F1F0EA01F5CFD383C28340815181840FC3
S11328C0951FC817D90759F488819981840F951FDA
S11328D00296918380838A819B81938382832115CD
S11328E0310529F4F0937508E09374083DC0E901BB
S11328F0FB83EA8349915991C40FD51FEC17FD0757
S113290061F480819181840F951F0296E901998376
S11329108883828193819B838A83E0E0F0E012962E
S11329208D919C911397009719F0FD01DC01F7CF6D
S11329308D919C9111979D012E5F3F4F820F931FA4
S113294020917208309173082817390769F4309779
S113295029F4109275081092740802C0138212822E
S1132960B0937308A0937208DF91CF9108956F928A
S11329707F928F929F92AF92BF92CF92DF92EF920B
S1132980FF920F931F93CF93DF93009781F4CB01B2
S1132990DF91CF911F910F91FF90EF90DF90CF9037
S11329A0BF90AF909F908F907F906F90BFCEFC01AF
S11329B0E60FF71F9C0122503109E217F30708F4D0
S11329C0A5C0EC01D9010D911C91119706171707A9
S11329D0A8F00530110508F497C0C80104978617BC
S11329E0970708F491C002501109061B170B0193B5
S11329F011936D937C93CF0131DF86C05B01A01AE4
S1132A00B10A4C01800E911EA0917408B091750812
S1132A10612C712CE12CF12C109709F446C08D9196
S1132A209C911197A815B905B1F56C0142E0C40E4B
S1132A30D11CCA14DB0478F14C018A189B08640188
S1132A4042E0C40ED11C1296BC9012971396AC911E
S1132A50B5E0CB16D10440F0B282A3839182808288
S1132A60D9016D937C9309C00E5F1F4F800F911F96
S1132A70F90191838083EB2DFA2FE114F10431F0F5
S1132A80D7011396FC93EE9312973EC0F09375080A
S1132A90E093740839C06816790608F43C017D0196
S1132AA012960D90BC91A02DB7CF80917208909191
S1132AB0730888169906E1F466167706C8F48091BF
S1132AC0000290910102009741F48DB79EB74091A6
S1132AD0040250910502841B950BE817F907B0F422
S1132AE0F0937308E0937208F901718360830CC05A
S1132AF0CB011CDE7C01009749F0A801BE013DD04A
S1132B00CE01ACDEC70104C0CE0102C080E090E07B
S1132B10DF91CF911F910F91FF90EF90DF90CF90B5
S1132B20BF90AF909F908F907F906F9008951F9368
S1132B30FC0199278827BC01E89411911032E9F32C
S1132B40193010F01E30C8F31B3249F01D3241F425
S1132B50689405C022D0610F711D811D911D1191D2
S1132B6010531A30B8F33EF49095809570956195A2
S1132B707F4F8F4F9F4F1F910895FB01DC0102C0CF
S1132B8001900D9241505040D8F70895FB01DC01AB
S1132B9001900D920020E1F70895592F482F372F07
S1132BA0262F660F771F881F991F660F771F881FB0
S1132BB0991F620F731F841F951F660F771F881F4D
S1132BC0991F089511E0C9E1D1E000E005C0802F0C
S1132BD0FE01A4DD2196011DCA31D10780E008075A
S1092BE0B1F7F894FFCFE9
S1132BE6000076082000444F4E4521004D61747262
S1132BF669782046756C6C00200056616C75653AE0
S1132C06006E3D0000000000F304760687043905D3
S1132C165904730465040D0A006E616E00696E66DC
S1132C26006F766600000000009E0B700B0A0B34E2
S1132C360A2F0C410B0E0CDB0BBA0B7C0AD20A00D2
S9030000FC
